:10000000E04E0020E59700003F0401003996000013
:1000100039960000399600003996000039960000A4
:1000200039960000399600003996000021910000B1
:100030003996000039960000C9900000558C0000E8
:10004000A5970000F1B70000A5970000A597000054
:10005000A5970000A5970000A5970000A5970000B0
:10006000A5970000A5970000D7080100A5970000FC
:10007000A5970000A5970000A5970000A597000090
:10008000A5970000A5970000A5970000A597000080
:1000900055BE0000A5970000A5970000A597000099
:1000A000A5970000A5970000A5970000A597000060
:1000B000A5970000A5970000A5970000A597000050
:1000C000A5970000A5970000A5970000A597000040
:1000D000A5970000A5970000A5970000A597000030
:1000E000A5970000A5970000A5970000A597000020
:1000F000A5970000A5970000A5970000A597000010
:100100007BB972B90029BEBF00204FF0004106E064
:1001100008BF00281CBF6FF000414FF0FF3000F017
:1001200057B8ADF1080C6DE904CE002909DB002BAE
:100130001ADB00F04FF8DDF804E0DDE9022304B03B
:100140007047404261EB4101002B1BDB00F042F89D
:10015000DDF804E0DDE9022304B0404261EB410137
:10016000524263EB43037047524263EB430300F098
:1001700031F8DDF804E0DDE9022304B0404261EB30
:1001800041017047524263EB430300F023F8DDF86E
:1001900004E0DDE9022304B0524263EB43037047FD
:1001A00053B94AB9002908BF00281CBF4FF0FF31DE
:1001B0004FF0FF3000F00CB8ADF1080C6DE904CE43
:1001C00000F008F8DDF804E0DDE9022304B0704730
:1001D000704700BF2DE9F04F099F154604468E4633
:1001E0001E46002B40F0CC808A42B2FA82FC4CD9E9
:1001F000BCF1000F0BD0CCF1200801FA0CFE20FA64
:1002000008F802FA0CF548EA0E0E00FA0CF44FEA70
:1002100015491FFA85F8BEFBF9FA210C09FB1AE310
:100220000AFB08FB41EA03439B452AD9EB180AF174
:10023000FF3004D29B4502D9AAF102002B44A3EB64
:100240000B03A4B2B3FBF9F209FB123302FB08F86B
:1002500044EA0344A04516D92C1902F1FF3303D216
:10026000A04501D9931E2C44A4EB080443EA0040A6
:1002700027B124FA0CF400233C607B603146BDE8D2
:10028000F08F5046DBE71346EEE702B9FFDEBCF124
:10029000000F2ED18B1A01264FEA154EAAB2B3FBDE
:1002A000FEF8210C0EFB183308FB02F941EA034368
:1002B000994561D9EB1808F1FF3004D2994502D96C
:1002C000A8F102002B44A3EB0903A4B2B3FBFEF197
:1002D0000EFB11334A4344EA0344A2424ED92C197F
:1002E00001F1FF3303D2A24201D98B1E2C44A41A80
:1002F000BCE7CCF1200E02FA0CF521FA0EF901FA56
:100300000CF320FA0EFE4EEA03034FEA154800FAFA
:100310000CF4B9FBF8F11FFA85FE08FB1192180CDA
:1003200001FB0EF640EA0242964221D9AA1801F1D9
:10033000FF3003D2964201D9881E2A44921B9BB2F9
:10034000B2FBF8F908FB192209FB0EFE43EA02434F
:100350009E450FD9EB1809F1FF3604D29E4502D90C
:10036000A9F102062B44A3EB0E0346EA004693E7ED
:100370000846E3E74E46F6E74046A4E70B46B6E7F5
:100380008B4205D90FB1C7E900010026304675E759
:10039000B3FA83FCBCF1000F0FD18B4201D3824230
:1003A00009D8841A61EB030E0120002F6AD0C7E937
:1003B000004E002662E76046F7E7CCF1200E03FA14
:1003C0000CF322FA0EF521FA0EF41D4301FA0CF398
:1003D00020FA0EF10B434FEA154A00FA0CF6B4FB73
:1003E000FAF91FFA85F80AFB19401C0C09FB08F101
:1003F00044EA0044A14202FA0CF23FD92C1909F157
:10040000FF3004D2A14202D9A9F102002C44641A9F
:100410009BB2B4FBFAF90AFB194409FB08F843EA5A
:10042000044188452CD9691809F1FF3304D2884565
:1004300002D9A9F10203294443EA0040A1EB0801D3
:10044000A0FB02894945C2464C4602D306D1464527
:1004500004D2B8EB020A69EB0504013897B1B6EB98
:100460000A0361EB040606FA0EFE23FA0CF34EEAC9
:10047000030326FA0CF6C7E900369AE74846C6E7B2
:100480004B46D9E73E46F9E630B583B04FF000045D
:10049000032363F302046FF3C5042D4B2D4A9B1A0B
:1004A000C3F3C90363F38F140EF05CF810F020FB64
:1004B00005460EF057F8234602462946264804F022
:1004C000ABFD4FF0FF3125480CF0B2FD0190244CFC
:1004D000426800F10801601D10F02AF8019B5B687A
:1004E000237001A91F480CF071F94FF0FF311E482D
:1004F0000EF0A8F80BF0AEFE1C4B1860B8B9184807
:100500000BF0A4FD194B18600028DAD0184C6F23AB
:100510002246184918480FF0B2F9144B19681748C9
:100520000FF0ADF96F2120460FF02FFAC9E7104CFC
:100530006C2322460F4910480FF0A1F90B4B1968A4
:100540000F480FF09CF96C2120460FF01EFAD6E7F9
:10055000FC0D0100D40D01003C0F0100A47400202B
:1005600060700020E87300203C74002078000020B8
:10057000440F0100800F01008C0F0100C40F010027
:10058000AC0F010030B583B004464B480EF026F89E
:100590002378012B1FD05AB21AB1022B4BD003B0D3
:1005A00030BD0BF011FE454B186018B944480EF0F1
:1005B00015F8F4E7434C31232246434943480FF0F2
:1005C0005EF93E4B196842480FF059F93121204637
:1005D0000FF0DBF9EAE70BF067FE384B186040B923
:1005E0000BF0F2FD354B1860A0B935480DF0F6FF61
:1005F000D5E7344C3A232246334934480FF03FF9CB
:100600002E4B196833480FF03AF93A2120460FF083
:10061000BCF9E5E72B4C3C2322462B492B480FF035
:100620002EF9264B19682A480FF029F93C2120465B
:100630000FF0ABF9D9E728480BF082FD1F4B18608B
:10064000C8B91E4B1B68002BA9D1002201A9234861
:100650000CF034F80446F8B91F4C214611F8052B6C
:10066000019808300FF064FF019923784B601C4813
:1006700010F0E3F993E7134C47232246124913483D
:100680000FF0FDF80D4B196816480FF0F8F84721E8
:1006900020460FF07AF9D4E70A4D50232A460A493A
:1006A0000A480FF0ECF821460F480FF0E8F8502107
:1006B00028460FF06AF9CFE76C7400207400002020
:1006C0003C740020440F0100800F01008C0F0100DA
:1006D0005C0E0100740E010080000020E873002011
:1006E000B87400208C0E0100AC0E010030B58BB048
:1006F0004A4C236809936368089306AB04F1080227
:1007000092E8030083E803006D4610340FCC0FC558
:1007100094E8030085E80300414B019368460BF021
:1007200027FC404B186018BB09A80BF0E9FD3D4BB6
:10073000186000282DD108A80BF0FCFD394B18607B
:10074000002837D1082106A80BF00EFE354B1860A3
:10075000002840D10BF038FD324B186000284BD1F7
:1007600031480DF03BFF31480EF090F80BB030BD32
:100770002F4C7F2322462F492F480FF080F8294B1A
:1007800019682E480FF07BF87F2120460FF0FDF806
:10079000CAE7274C82232246264927480FF06FF8E4
:1007A000204B196826480FF06AF8822120460FF086
:1007B000ECF8C0E71E4C852322461E491E480FF068
:1007C0005EF8184B19681F480FF059F8852120462C
:1007D0000FF0DBF8B6E7164C882322461549164879
:1007E0000FF04DF80F4B196817480FF048F88821A3
:1007F00020460FF0CAF8ADE70D4C8B2322460D4979
:100800000D480FF03CF8074B196810480FF037F807
:100810008B2120460FF0B9F8A2E700BF340E01008B
:10082000850500007C0000203C74002008000020AA
:10083000440F0100800F01008C0F0100C40E010065
:10084000D80E0100FC0E0100200F01005C0E01001B
:1008500070B54FF00004032363F302046FF3C50483
:10086000484B494A9B1AC3F3C90363F38F140DF035
:1008700079FE10F03DF905460DF074FE2346024660
:100880002946424804F0C8FB41480BF0AFFD05463D
:10089000C8B16B681C6801230D2200212846A047BF
:1008A0000646E0B96B685C6801230D2200212846EA
:1008B000A047064618BB4FF4AF72002135480EF032
:1008C00059FC00243DE0344C15232246334934487A
:1008D0000EF0D5FF152120460FF057F8D9E72E4C22
:1008E000182322462F492E480EF0C9FF31462E48C4
:1008F0000EF0C5FF182120460FF047F8D2E7264C2E
:100900001B232246274926480EF0B9FF31462748C7
:100910000EF0B5FF1B2120460FF037F8CBE76B68D0
:100920005E6800230D2219462846B04732200DF09C
:10093000DFFC6B685E6801230D2200212846B0476A
:10094000013414480EF066FC194A82FB0432E317A6
:10095000C3EB620303EB8303E31AE0D0012BEFD177
:100960006B685E6800230D2219462846B047322086
:100970000DF0BEFC6B685E6801230D220021284645
:10098000B047DDE7FC0D0100D40D01003C0F010074
:10099000F00F0100BC730020F80F010038100100B7
:1009A0008C0F0100800F0100541001007010010035
:1009B00067666666F8B504460D4643681E680123FF
:1009C0000A680021B04748B963685E6801232A6855
:1009D00000212046B047044688B9F8BD0646104FAE
:1009E0001B233A460F4910480EF049FF31460F4885
:1009F0000EF045FF1B2138460EF0C7FFE4E7084D17
:100A00001E232A46074908480EF039FF21460848A8
:100A10000EF035FF1E2128460EF0B7FFDDE700BFC0
:100A2000A8100100800F01008C0F0100541001007C
:100A3000701001002DE9F04105460E4617464FF0B3
:100A40000004032363F302046FF3C5041A4B1B4A2B
:100A50009B1AC3F3C90363F38F140DF083FD10F0E9
:100A600047F880460DF07EFD234602464146144875
:100A700004F0D2FA28460BF0B9FC044680B13146A6
:100A80002046FFF797FF4FF0FF3138460DF0DAFDB3
:100A900063685D680023326819462046A847F2E77C
:100AA000084D26232A46084908480EF0E8FE26216C
:100AB00028460EF06AFFE2E7FC0D0100D40D0100AC
:100AC0003C0F0100A8100100381001008C0F01003C
:100AD0002DE9F04106460D4617464FF0000403236A
:100AE00063F302046FF3C5041F4B204A9B1AC3F340
:100AF000C90363F38F140DF035FD0FF0F9FF804645
:100B00000DF030FD234602464146194804F084FAB0
:100B100030460BF06BFC0446D0B129462046FFF767
:100B200049FF4FF0FF3138460DF08CFD63685E6879
:100B300000232A6819462046B04732200DF0D8FB22
:100B400063685E6801232A6800212046B047E8E711
:100B5000084E36233246084908480EF090FE3621EA
:100B600030460EF012FFD8E7FC0D0100D40D010055
:100B70003C0F0100A8100100381001008C0F01008B
:100B80004FF0804301221A60024B1B680BB900BF73
:100B9000FAE770470001004008B54FF00002032358
:100BA00063F302026FF3C502084B09495B1AC3F3F2
:100BB000C90363F38F120749074804F0C7F9FFF729
:100BC000DFFFFFF793FD00F09FF808BDFC0D01006B
:100BD000D40D01003C11010044110100F0B583B0B7
:100BE000044643685B6C03B198471F480DF0F6FC60
:100BF00063685B6B13B120469847B8B903B0F0BD8A
:100C0000002005460028F9D0002201A917480BF062
:100C100055FD0646C0B92A461549019808300FF01F
:100C200087FC01994D6013480FF007FF0F4B9A683E
:100C30009B699A42E2D063689B69002BE0D0202236
:100C40000B4920469847DCE70B4F40233A460B49B7
:100C50000B480EF014FE31460A480EF010FE4021FB
:100C600038460EF092FED6E75C740020E873002050
:100C7000C4020020A474002060110100800F010054
:100C80008C0F0100AC0E010030B583B04FF00004B2
:100C9000032363F302046FF3C504154B154A9B1A33
:100CA000C3F3C90363F38F140DF05CFC0FF020FF56
:100CB00005460DF057FC2346024629460E4804F02F
:100CC000ABF903E001A90D480BF080FD4FF0FF31B7
:100CD0000B480CF0ADF901900A4B1C6800F10801BB
:100CE000426863685B69002BECD020469847E9E7CF
:100CF000FC0D0100D40D01003C0F0100E873002041
:100D0000B8740020E402002008B50B480BF06EFB1D
:100D10000A4B1860436823B19B6C13B10246084923
:100D20009847064B186843689B6A03B19847054883
:100D30000DF0ACFD08BD00BF54110100E40200201D
:100D4000DD0B0000580200202DE9F84F04460F4645
:100D500092461E46DDF828B03FE0A4234C4A4D4998
:100D60004D480EF08CFD4D480EF089FDA4214848F9
:100D70000EF00BFE43E04FF0000B69E05846BDE873
:100D8000F88F4246394620460EF020FB424629465F
:100D900020460EF0E5FA42680368136042685A6024
:100DA00000230360436009F10109B9F1030F0FDC6F
:100DB00026F00308C8444246294620460EF0D0FAE1
:100DC0002A46014620460EF02BFB0028EBD0D8E740
:100DD000013F3346002E47DB9E10002F46DBB9460D
:100DE0005AF827503246294620460EF0B9FA804676
:100DF0002A46014620460EF013FB0028ADD03246AD
:100E0000394620460EF0D3FAE36809EB49094FEA68
:100E1000890213441A1DC8F800209A68C8F80420F3
:100E2000C2F80080C3F80880237C13F0010F03D0C0
:100E30008BF31188BFF36F8F237C13F0010F9AD0CF
:100E40004FF02003EFF3118B83F31188BFF36F8F03
:100E5000002F93D03246394620460EF0C7FA0F28AD
:100E60008CD14FF00009A0E7F31CB5E7084CC02374
:100E700022460B4908480EF002FD0A480EF0FFFC1E
:100E8000C02120460EF081FD4FF0FF3077E700BF14
:100E9000B0110100C41101008C0F0100E01101002C
:100EA000F02F0100E41101002DE9F04F83B08246DC
:100EB000019115469B46DDF83090B9F1000F2EDD0B
:100EC0004FF001080A260027224C12E0601CB5FBF7
:100ED000F0F001993030D04708F101080127013EB8
:100EE000631CB5FBF3F203FB12551B4BA3FB04344D
:100EF000E408082C16D9002FE8D1AC42E6D34E45C1
:100F0000EDDCBBF1020FEAD8BBF1010F05D02020C8
:100F10000199D04708F10108E1E73020F8E74FF0E8
:100F20000109CDE7019905F13000D047BBF1030F6E
:100F300002D003B0BDE8F08FA9EB080803E00199E7
:100F40002020D047A04608F1FF34B8F1000FF6DCAE
:100F5000EFE700BFFFC99A3BCDCCCCCC014B18606A
:100F6000704700BF887000202DE9F04F87B007461A
:100F70000E46144605934FF000094FF0FF38CA465D
:100F80004D4602E03146B84701342078002800F091
:100F9000A78145B92528F5D1A9464FF0FF384FF074
:100FA000000A0125F0E7A0F12503552B00F28A8104
:100FB00001A252F823F000BFBB120000C5120000CE
:100FC000C5120000C5120000C5120000C5120000C5
:100FD000C5120000C5120000D5120000C5120000A5
:100FE000C5120000111100001F1100001F110000A8
:100FF0001F1100001F1100001F1100001F11000031
:101000001F1100001F1100001F110000C512000079
:10101000C5120000C5120000C5120000C512000074
:10102000C5120000C5120000C5120000C512000064
:10103000C5120000C5120000C5120000C512000054
:10104000C5120000C5120000C5120000C512000044
:10105000C5120000C5120000C5120000C512000034
:10106000C5120000C5120000C5120000C512000024
:10107000C5120000C5120000C5120000C512000014
:10108000C512000033120000C5120000C512000096
:10109000C5120000C5120000C5120000C5120000F4
:1010A000C5120000C5120000C5120000C5120000E4
:1010B000AB1200004D110000C5120000C512000067
:1010C000C5120000890F00004D110000C51200007C
:1010D000C512000047110000C5120000C512000033
:1010E000C51200001F120000C5120000C51200004A
:1010F0006B120000C5120000C7110000C5120000ED
:10110000C512000033120000C5120000890F000054
:10111000B8F1000F03DABAF1000F00F0DE80B8F189
:10112000000F0DDB08EB88084FEA48031844A0F1D4
:101130003008BAF1000F7FF427AF4FF0020A23E71F
:10114000A0F13008F5E709F101091DE7B9F1000F39
:101150000FD1059B1A1D05921D68002D2CDBCDF8C3
:10116000008053462A4631463846FFF79DFE00254B
:101170000AE7B9F1010F1AD0059B073323F00703E3
:1011800003F1080205921D685B6815F100420292A6
:1011900043F100030393DDE90223012B08BF002A7A
:1011A000DBD3314638460EF0E6FA0025ECE6059B27
:1011B0001A1D05921D68D0E731462D20B8476D42B3
:1011C00008F1FF38CBE7B9F1000F0CD1059B1A1DD0
:1011D00005921A68CDF80080534631463846FFF72D
:1011E00063FE0025D0E6B9F1010F13D0059B07334C
:1011F00023F0070303F108020592D3E90023002B33
:1012000008BFB2F1004FE5D3314638460EF0B3FACD
:101210000025B9E6059B1A1D05921A68DAE73146E2
:101220003020B84731467820B8474FF008084FF0D3
:10123000010AB9F1010F12DD059B073323F0070303
:1012400003F1080205921A685B68CDF80480CDF8B6
:1012500000A0314638460EF09AFA002594E6059B28
:101260001A1D05921A680023EFE7059B1A1D0592C7
:10127000D3F800B05D4602E001353146B847287822
:101280000028F9D1BAF1030F01D000257CE6A5EBC7
:101290000B03A8EB030303E031462020B8472B469D
:1012A0005D1E002BF8DC00256EE6059B1A1D0592DD
:1012B00031461868B847002566E631462520B8470C
:1012C000002561E631462520B84731462078B847E9
:1012D000002559E64FF0030A56E64FF0010A53E69F
:1012E00007B0BDE8F08F00BF10B584B00446019090
:1012F00002910021039101A90548FFF735FE039BE8
:10130000029A934201DA0022E254039804B010BD1D
:101310004FF800002DE9F04182B080460E46154698
:1013200000272A4601A940460EF0B7FA04460246B5
:10133000314601980FF0FCF8274426442D1B01D0BC
:10134000002CEED1394640460EF0C7FA18B938469F
:1013500002B0BDE8F081064C9E23224605490648AE
:101360000EF08DFA9E2120460EF00FFBEFE700BF36
:10137000F4110100800F01008C0F01002DE9F041F4
:1013800082B080460E46154600272A4601A94046EF
:101390000EF0BDFA04460246019930460FF0C8F837
:1013A000274426442D1B01D0002CEED1394640465F
:1013B0000EF0CFFA18B9384602B0BDE8F081064CFD
:1013C000D8232246054906480EF059FAD82120466E
:1013D0000EF0DBFAEFE700BFF4110100800F01000F
:1013E0008C0F010010B54FF02003EFF3118483F34D
:1013F0001188BFF36F8F00F067F80123084AC2F825
:1014000040354FF08042C2F87835064B4FF0FF323E
:101410009A62DA6284F31188BFF36F8F002010BDE7
:1014200000E0014000ED00E0064B1B68082B01D0F6
:1014300000207047044B1B680BB10020704701204F
:10144000704700BF3001001034010010064B1B68CC
:10145000082B01D000207047044B1B680BB1002003
:1014600070470120704700BF3001001034010010A8
:10147000064B1B68082B01D000207047044B1B68EB
:101480000BB1002070470120704700BF30010010F1
:1014900034010010064B1B68082B01D00020704758
:1014A000044B1B680BB1002070470120704700BF40
:1014B0003001001034010010014B024A1A607047DD
:1014C0008C7000200090D00308B50EF065FA40B192
:1014D0004FF080430022C3F80C21C3F81021C3F859
:1014E00038250EF05BFA002846D04FF08052D2F833
:1014F00004145B4BC3F82015D2F80814C3F8241564
:10150000D2F80C14C3F82815D2F81014C3F82C150F
:10151000D2F81414C3F83015D2F81814C3F83415DF
:10152000D2F81C14C3F84015D2F82014C3F844159F
:10153000D2F82414C3F84815D2F82814C3F84C156F
:10154000D2F82C14C3F85015D2F83014C3F854153F
:10155000D2F83414C3F86015D2F83814C3F86415FF
:10156000D2F83C14C3F86815D2F84014C3F86C15CF
:10157000D2F84424C3F87025FFF756FF10B1394B59
:10158000394A1A60FFF762FF18B1384BFB22C3F8E3
:101590001825FFF76DFF48B135490B6823F00F039D
:1015A000344A126802F00F0213430B60FFF772FF18
:1015B00018B1314B4FF400721A600EF0F1F960B1BE
:1015C0004FF08043D3F8003413F0010F05D04FF0F3
:1015D00080436FF00102C3F800244FF01023D3F8CA
:1015E0000032002B08DB4FF01023D3F80432002B1D
:1015F00002DBFFF761FF08BD204B0122C3F8042581
:101600001E4BD3F80034002BFAD04FF010231222D7
:10161000C3F80022194BD3F80034002BFAD04FF056
:1016200010231222C3F80422144BD3F80034002BE9
:10163000FAD0124B0022C3F80425104BD3F8003423
:10164000002BFAD0BFF34F8F0D49CA6802F4E06255
:101650000C4B1343CB60BFF34F8F00BFFDE700BFC0
:1016600000C000408C5600404881030000F000405C
:10167000E40E0040580200104096024000E0014095
:1016800000ED00E00400FA0538B50446B0F5000F9F
:1016900009D20B4B9A680A4B9B68D31A23F07F43FD
:1016A000A342F8D338BD074D87232A460649074889
:1016B0000EF0E5F8872128460EF067F9E9E700BF4C
:1016C00010E000E060120100401201008C0F0100E8
:1016D00038B50446104B1B68104AA2FB03239B0C31
:1016E0000F4AB2FBF3F383420AD30B4B18680B4B40
:1016F000A3FB0030800C00FB04F0FFF7C5FF38BDF2
:10170000084D92232A46084908480EF0B8F892215D
:1017100028460EF03AF9E8E78C70002083DE1B4380
:10172000FFFF7F0060120100941201008C0F010086
:10173000034610F0020F04D1044813F0040F02D145
:1017400070470348F9E70348FAE700BF0100AD0B13
:101750000100AE0B0200AE0BF0B58DB004460D4695
:101760000B68002B5CD0D4F8243153B10023C4F8AB
:101770002431D4F824310193019BD4F80431002B97
:101780005CD0D4F80431002B6AD00023C4F80431B3
:10179000D4F804310293029B07AE05F10C070FCF7A
:1017A0000FC63B68336095F82E3053B12B7B012B6D
:1017B00050D0D4F84C250892022B4ED0D4F84C359A
:1017C00009930023C4F86031D4F860210492049A8C
:1017D000C4F85C31D4F85C310393039B95F8303046
:1017E00013B195F82E3033B10023C4F80032AB604A
:1017F000374BC4F80833D4F8C434C4F8C43413F0F5
:10180000020F5AD001238DF8183095F830300BB9FB
:1018100085F82F302B68696806A898470DB0F0BD91
:101820002C4E4FF40F7332462B492C480EF027F8FC
:101830004FF40F7130460EF0A8F894E7AB68C4F887
:1018400008330223AB60AB68C4F80433012323627E
:101850006361E3E7D4F83C25ADE7D4F83C35AFE766
:101860000023C4F84831D4F848310593059B2B7BFD
:101870008BB907AE05F10C070FCF0FC63B6833607D
:1018800095F83030002BB6D1C4F80032AB60104B65
:10189000C4F80833AFE74FF40073C4F8003240F2E5
:1018A0000223AB6003F1CE73C4F80833AB68C4F80D
:1018B00004330123A3602362B0E713F0040F03D0C5
:1018C00002238DF81830A0E700238DF818309CE72C
:1018D00002029C0134150100641501008C0F010007
:1018E0002DE9F041074690461E460C4671B122682C
:1018F00063689A4216D03D79484A342303FB052396
:1019000093F82D30D3B14648BDE8F081454DA02372
:101910002A46454945480DF0B2FFA02128460EF061
:1019200034F8E4E73F4DA1232A4641493F480DF0F2
:10193000A6FFA12128460EF028F8DCE71146342244
:1019400002FB05F28B1841F802805E6000229A606B
:1019500083F8302083F82F20627B83F832202668BA
:101960002F2E05D81F2E12D906F01F06314B10E07E
:10197000DFF8CC804FF4E27342462F492B480DF03C
:101980007EFF4FF4E27140460DF0FFFFEAE74FF0B3
:10199000A04306F5E07640F20C6243F82620666824
:1019A0002F2E05D81F2E12D906F01F06214B10E04E
:1019B000DFF88C804FF4E27342461F491B480DF05C
:1019C0005EFF4FF4E27140460DF0DFFFEAE74FF0B3
:1019D000A04306F5E07640F20C6243F826203B680F
:1019E00021686268C3F80815C3F80C25A268C3F81B
:1019F0002425342303FB05F3084AD35823B1386860
:101A000040F3073007F050FD044B342202FB05354C
:101A1000012385F82D30094876E700BFE802002051
:101A20000500AD0B34150100381301008C0F0100C7
:101A300044130100000300508C1301000000AD0BA3
:101A40006413010070B505460479114A342303FB81
:101A5000042393F82D30012B0BD12B680622C3F8F9
:101A600000250B4B342202FB0434022384F82D3072
:101A700070BD084E4FF484733246074907480DF095
:101A8000FEFE4FF4847130460DF07FFFE5E700BFA6
:101A9000E8020020341501000C1301008C0F010036
:101AA00070B505460479154A342303FB042393F8E3
:101AB0002D30ABB12B68114A342101FB04240021E5
:101AC000A1600F4AC3F80823D3F8002222F4BC52C5
:101AD000C3F80022C3F80015012384F82D3070BD2F
:101AE000084E40F213133246074908480DF0C7FE6E
:101AF00040F2131130460DF048FFDBE7E80200200A
:101B000002029C0134150100E01201008C0F01005B
:101B10002DE9F04F89B004460D46904603793BB954
:101B20004B68B3F5803F03D28B68B3F5803F0CD38D
:101B3000C04E40F2E7133246BF49C0480DF09FFE49
:101B400040F2E71130460DF020FF94F804A0DFF8D2
:101B5000F092342606FB0AF609EB060759F8063020
:101B6000002B51D0342303FB0AF3B54AD358002B82
:101B70005CD02468EB6803F06043B3F1005F40F091
:101B80009781B04BC4F8083397F82F30002B5FD102
:101B900018F0140F0CBF0123002387F82F3007F132
:101BA0000C0CAE46BEE80F00ACE80F00DEF80030CB
:101BB000CCF80030C8F3001387F830306B78C4F8E5
:101BC00088350023C4F80431D4F804210592059A1D
:101BD000C4F82431D4F824310693069B18F0010F81
:101BE0003BD00123C4F8503518F0020F39D001233F
:101BF000C4F840352B78032B00F23681DFE813F070
:101C0000CA000601AA0035002B78022BAAD1DFF802
:101C100024B240F2ED135A468B4988480DF02FFE4E
:101C200040F2ED1158460DF0B0FE9BE72B78032BE8
:101C30009FD1DFF800A24FF4F773524683497F48E3
:101C40000DF01DFE4FF4F77150460DF09EFE90E72B
:101C5000BB68C4F804337E482BE10023C4F8503538
:101C6000C2E70023C4F84035C4E718F0100F44D190
:101C700018F0080F50D118F0040F5CD12B6903F055
:101C80006043B3F1005F40F017814FF48073C4F8F4
:101C90000032EA686B68C4F84425C4F8483500236C
:101CA000C4F85031D4F850210292029AC4F860313D
:101CB000D4F860210392039AC4F84831D4F848312B
:101CC0000493049B01232362A360D4F85031002BBA
:101CD000FBD00023C4F85031D4F850310193019B5C
:101CE0002A69AB68C4F84425C4F84835594BBB6031
:101CF0004FF482720823584868E0DFF838A14FF4A7
:101D0000B473524655494D480DF0B9FD4FF4B471C6
:101D100050460DF03AFEABE7DFF818A140F2691328
:101D200052464F4945480DF0AAFD40F26911504610
:101D30000DF02BFE9FE7DFF8FCA04FF4B573524681
:101D400048493E480DF09BFD4FF4B57150460DF0EB
:101D50001CFE93E7EA686B68C4F84425C4F848356C
:101D60002B6903F06042B2F1005F40F0A780AA68DF
:101D7000C4F83435C4F838254FF48453C4F800321D
:101D800040F20223BB60012323624FF482720823D6
:101D900031481BE0EA686B68C4F84425C4F848354C
:101DA00018F0200F28D04FF48073C4F80032294B6C
:101DB000BB600023C4F84831D4F848310093009B3D
:101DC0004FF4A472012323620823234818F0080F5C
:101DD00004D12978032901D00121E15059F80630B6
:101DE000002B46D018F0040F02D04FF40073BB60F4
:101DF000BB68C4F804335CE04FF40073C4F80032ED
:101E000040F20223BB604FF48272DBE7EA686B6842
:101E1000C4F83425C4F838354FF48053C4F8003280
:101E200040F20223BB60012323624FF4827200233D
:101E30000948CBE734150100A01301008C0F010005
:101E4000E802002002029C014C1401009C140100D5
:101E50000B00AD0B000204000000AD0BEC14010000
:101E6000041501001C1501004FF482720823144868
:101E7000ACE7A35883B9D4F82431002BF9D0002360
:101E8000C4F82431D4F824310793079B012323623B
:101E900063614FF48272ECE7D4F8C434C4F8C434FC
:101EA000002287F82F2023B11846FFF741FC00E0FD
:101EB000044809B0BDE8F08F0248FAE70148F8E7A6
:101EC0000400AD0B0A00AD0B08B502490248FFF74C
:101ED00043FC08BDE80200200030004000B583B09C
:101EE0000023074A1370074A1370019301238DF8EA
:101EF0000430054B1B6801A8984703B05DF804FB4C
:101F0000C8270020CB2700201C0500202DE9F04128
:101F100007460D4616461C469A4212D32B6823B13B
:101F200003F06043B3F1005F1AD16B689C4226D97D
:101F300000227A602A683A60A64229D00020BDE8D3
:101F4000F081DFF864804FF4E97342461349144886
:101F50000DF095FC4FF4E97140460DF016FDDDE7FC
:101F6000DFF844804FF4EA7342460E490C480DF006
:101F700086FC4FF4EA7140460DF007FDD5E77C6022
:101F80002A683A601B1B6B602A6822442A60D3E7E8
:101F90000BB90020D3E70120D1E700BF6416010090
:101FA0008C0F01007C16010034160100F8B50646BE
:101FB0000C4615460B6803F06043B3F1005F10D187
:101FC0006368AB4200D81D46236833607560606863
:101FD000401B606023681D442560003018BF01204D
:101FE000F8BD074F40F2F9133A46064906480DF08E
:101FF00046FC40F2F91138460DF0C7FCE0E700BF9F
:1020000034160100701A01008C0F0100F8B5064665
:102010000D4614460B6803F06043B3F1005F06D130
:102020006B68A34200D81C467CB12B680EE00D4FB4
:1020300040F21A233A460C490C480DF020FC40F2BD
:102040001A2138460DF0A1FCEAE7002333607460E2
:102050006B681B1B6B602B6823442B60201C18BF14
:102060000120F8BD34160100701A01008C0F010028
:1020700010B582B02C4BD3F80044C3F80044BFF332
:102080006F8FBFF34F8FBFF36F8FBFF34F8F14F47A
:10209000807F0BD0254B01221A700023019302236D
:1020A0008DF80430224B1B6801A8984714F4007F78
:1020B0000AD000231D4A1370019303238DF80430C6
:1020C0001B4B1B6801A8984714F4806F1BD0174B5B
:1020D0001B78C3B1144BD3F82C35B3B90023134A82
:1020E000137001221049C1F8082558310A60BFF366
:1020F0006F8FBFF34F8F019304238DF804300C4B87
:102100001B6801A8984702B010BD0A4C40F2F54385
:102110002246094909480DF0B2FB40F2F54120463C
:102120000DF033FCDAE700BF00700240C827002042
:102130001C05002034160100B41501008C0F0100AD
:102140000023154A1360154A1370154B93F89E30FF
:10215000032B04D0124BD3F8903073B17047114B5E
:10216000BFF35B8F53E8002F22F0010243E8002108
:102170000029F7D1BFF35B8F70470A4BBFF35B8F2A
:1021800053E8002F22F0010243E800210029F7D193
:10219000BFF35B8FE2E700BF1C7C0240C927002031
:1021A000FC0300208803002000B583B000238DF8D5
:1021B0000430114BD3F82025ADF80620D3F8C034F5
:1021C00023B113F4803F03D0002301E04FF0FF332D
:1021D000B3F1FF3F0CD14FF48071084A13680B43F1
:1021E0001360074B1B6801A8984703B05DF804FB18
:1021F0004FF00121F1E700BF00700240F80300201A
:102200001C05002000231D4A13601D4A13701D4B3E
:1022100093F81E31032B04D01A4BD3F8103173B14D
:102220007047194BBFF35B8F53E8002F22F4807285
:1022300043E800210029F7D1BFF35B8F704700B559
:1022400083B0114BBFF35B8F53E8002F22F48072F1
:1022500043E800210029F7D1BFF35B8F06238DF8F7
:10226000043088238DF8063000238DF80730074BA3
:102270001B6801A8984703B05DF804FB1C7C024072
:10228000C9270020FC030020880300201C05002033
:102290000023164A1360164A1370164B93F88E30BB
:1022A000032B03D0134BD3F8803003B1704700B534
:1022B00083B0114BBFF35B8F53E8002F22F0807285
:1022C00043E800210029F7D1BFF35B8F06238DF887
:1022D000043008238DF8063000238DF80730074BB3
:1022E0001B6801A8984703B05DF804FB1C7C024002
:1022F000C9270020FC030020880300201C050020C3
:102300000023154A1360154A1370154B93F8FE30DD
:10231000032B04D0124BD3F8F03073B17047114B3C
:10232000BFF35B8F53E8002F22F0400243E8002107
:102330000029F7D1BFF35B8F70470A4BBFF35B8F68
:1023400053E8002F22F0400243E800210029F7D192
:10235000BFF35B8FE2E700BF1C7C0240C92700206F
:10236000FC030020880300200023154A1360154A4F
:102370001370154B93F8EE30032B04D0124BD3F8A7
:10238000E03073B17047114BBFF35B8F53E8002F00
:1023900022F0200243E800210029F7D1BFF35B8F30
:1023A00070470A4BBFF35B8F53E8002F22F02002E7
:1023B00043E800210029F7D1BFF35B8FE2E700BFBC
:1023C0001C7C0240C9270020FC0300208803002059
:1023D0000023154A1360154A1370154B93F8DE302D
:1023E000032B04D0124BD3F8D03073B17047114B8C
:1023F000BFF35B8F53E8002F22F0100243E8002167
:102400000029F7D1BFF35B8F70470A4BBFF35B8F97
:1024100053E8002F22F0100243E800210029F7D1F1
:10242000BFF35B8FE2E700BF1C7C0240C92700209E
:10243000FC030020880300200023154A1360154A7E
:102440001370154B93F8BE30032B04D0124BD3F806
:10245000B03073B17047114BBFF35B8F53E8002F5F
:1024600022F0040243E800210029F7D1BFF35B8F7B
:1024700070470A4BBFF35B8F53E8002F22F0040232
:1024800043E800210029F7D1BFF35B8FE2E700BFEB
:102490001C7C0240C9270020FC0300208803002088
:1024A0000023154A1360154A1370154B93F8AE308C
:1024B000032B04D0124BD3F8A03073B17047114BEB
:1024C000BFF35B8F53E8002F22F0020243E80021A4
:1024D0000029F7D1BFF35B8F70470A4BBFF35B8FC7
:1024E00053E8002F22F0020243E800210029F7D12F
:1024F000BFF35B8FE2E700BF1C7C0240C9270020CE
:10250000FC030020880300200023154A1360154AAD
:102510001370154B93F8CE30032B04D0124BD3F825
:10252000C03073B17047114BBFF35B8F53E8002F7E
:1025300022F0080243E800210029F7D1BFF35B8FA6
:1025400070470A4BBFF35B8F53E8002F22F008025D
:1025500043E800210029F7D1BFF35B8FE2E700BF1A
:102560001C7C0240C9270020FC03002088030020B7
:102570000023154A1360154A1370154B93F80E315A
:10258000032B04D0124BD3F8003173B17047114BB9
:10259000BFF35B8F53E8002F22F0800243E8002155
:1025A0000029F7D1BFF35B8F70470A4BBFF35B8FF6
:1025B00053E8002F22F0800243E800210029F7D1E0
:1025C000BFF35B8FE2E700BF1C7C0240C9270020FD
:1025D000FC03002088030020F0B583B005460124E9
:1025E0008C40984A13682343136010F0800F11D178
:1025F000954B1B681C420BD106238DF804308DF8D7
:10260000060001238DF80730904B1B6801A89847FE
:1026100003B0F0BD00F00F06082E45D815F0800F6E
:1026200050D18B4B33F8163003F1804303F51C3344
:102630001A682AB100211960BFF36F8FBFF34F8F63
:102640000AB3802D00F0D28015F0800F3CD015F039
:10265000080F47D115F00F0F52D000237D4A1360A9
:102660007D4A137005F00F06082E57D815F0800F1D
:1026700062D17A4B36019A19927B032A5ED09B591C
:10268000002B00F08780704B1B681C42C0D10623D2
:102690008DF804308DF8065000238DF807306B4B11
:1026A0001B6801A89847B3E76D4F4FF4B9733A46DA
:1026B0006C496D480DF0E3F84FF4B97138460DF0F0
:1026C00064F9ABE7694BADE7654E40F2B63332468D
:1026D000674965480DF0D3F840F2B63130460DF049
:1026E00054F9B4E75E4E40F2B733324661495E4872
:1026F0000DF0C5F840F2B73130460DF046F9A9E7C4
:10270000574E4FF46E7332465B4957480DF0B7F899
:102710004FF46E7130460DF038F99EE7504F40F29D
:10272000A2233A464F4950480DF0A9F840F2A221A1
:1027300038460DF02AF999E7504B9BE705F00F0357
:10274000082B17D86BB2002B22DB102203F00F03EB
:102750001344012202FA03F3DB433B4ABFF35B8FCE
:1027600052E8001F194042E800100028F8D1BFF3DA
:102770005B8F88E73A4E40F2B523324639493A48F2
:102780000DF07DF840F2B52130460DF0FEF8D9E7A6
:102790000022DBE705F00F03082B17D86BB2002BE4
:1027A00022DB102203F00F031344012202FA03F389
:1027B000DB43254ABFF35B8F52E8001F194042E814
:1027C00000100028F8D1BFF35B8F5CE7244E40F285
:1027D000B5233246234924480DF051F840F2B52183
:1027E00030460DF0D2F8D9E70022DBE70023194A82
:1027F0001360194A1370194B93F89E30032B13D0B2
:10280000164BD3F89030002B7FF43DAF0E4BBFF347
:102810005B8F53E8002F22F0010243E800210029DA
:10282000F7D1BFF35B8F2EE7074BBFF35B8F53E806
:10283000002F22F0010243E800210029F7D1BFF365
:102840005B8F20E7F8030020880300201C05002090
:10285000A01501001C7C0240C9270020FC030020B9
:1028600034160100281C01008C0F010080150100A6
:10287000EC1C01001C1D0100481D01008C040020FF
:1028800038B5104B1C7804F00F03082B0AD863B23C
:10289000002B15DB102103F00F0319442046FFF72E
:1028A0009BFE38BD084D40F2B5232A46074908482B
:1028B0000CF0E5FF40F2B52128460DF066F8E6E79A
:1028C0000021E8E7CB27002034160100281C010076
:1028D0008C0F0100014BC3F83005704700700240B7
:1028E00010B50C4B1B78012B05D100230A4A13604D
:1028F000084A137010BD094C40F2B66322460849DD
:1029000008480CF0BCFF40F2B66120460DF03DF8DF
:10291000EBE700BFCA2700201C0500203416010089
:10292000A01B01008C0F010010B5714B1B78012B0F
:1029300040F0B3806F4B4FF40062C3F80024BFF344
:102940006F8FBFF34F8F6C4B1B68082B00F0B38069
:102950000023C3B14FF02002EFF3118382F31188FB
:10296000BFF36F8F654A1268002A40F0AB80634A5C
:1029700049F275311160624803240460116083F3E9
:102980001188BFF36F8F4FF02002EFF3118382F3B2
:102990001188BFF36F8F594A1268002A40F0968061
:1029A000564A49F2753111605648C02404601160DE
:1029B00083F31188BFF36F8F4E4B0122C3F80025BC
:1029C000BFF36F8FBFF34F8F4A4BD3F8003413F42C
:1029D000006FF9D0474B4FF40062C3F80024BFF3F7
:1029E0006F8FBFF34F8F4FF02002EFF3118382F30D
:1029F0001188BFF36F8F414A1268002A6AD13F4A9B
:102A000049F2753111603F4800240460116083F37E
:102A10001188BFF36F8F3C4B40F2E3721A600433AE
:102A200040221A60BFF36F8FBFF34F8FA3F60403EA
:102A30008022C3F81C250020FFF74CFF334B40F2E7
:102A4000FF121A600023324A1360324A1360324A7E
:102A50001370324A1370264B02221A70264B1B68E1
:102A6000082B3BD00023BBB14FF02002EFF31183C2
:102A700082F31188BFF36F8F204A1268002A33D186
:102A80001E4A49F2753111601D480024046011602E
:102A900083F31188BFF36F8F10BD214C40F2BF63E9
:102AA0002246204920480CF0EAFE40F2BF61204651
:102AB0000CF06BFF3EE71D4B1B68002B3FF449AF4A
:102AC000012346E70E4A0321116058E70D4AC02151
:102AD00011606DE70B4A0021116098E7134B1B68EA
:102AE000002BC0D00123BEE7054A00211160CFE7CB
:102AF000CA270020007002403001001000EC0640A0
:102B000014ED064014EC064000780240F803002063
:102B1000880300201C7C0240C9270020CB2700200E
:102B200034160100A01B01008C0F010034010010BD
:102B300038B504461A4B1B78022B0BD1194B0022D7
:102B40001A70E4B9184B1B68082B11D000232BB363
:102B5000164B15E0164D40F239732A4615491648B2
:102B60000CF08DFE40F2397128460CF00EFFE5E7BF
:102B7000124B1B680BB91346E9E70123E7E7104B3B
:102B8000104CC4F80433272006F08EFC0123C4F84F
:102B90000435BFF36F8FBFF34F8F38BD084BEFE79E
:102BA000CA270020C8270020300100100714C001E8
:102BB00034160100A81A01008C0F01003401001026
:102BC0000714E00100700240034B1878012894BFFD
:102BD00000200120704700BFCA270020F8B5044636
:102BE0000D4611B14B1E19420CD0244E40F2D17348
:102BF0003246234923480CF042FE40F2D171304660
:102C00000CF0C3FE14F0080209D01F4BD3F81C359A
:102C1000DBB2802B1FD04FF480639D420FD90AB9DD
:102C2000402D0CD9154E40F2D47332461749154841
:102C30000CF025FE40F2D47130460CF0A6FE04F0F4
:102C40000F06082E0AD814F0800F15D1104B03EB95
:102C500006139D81F8BD4FF40073DEE7074F40F285
:102C6000A2233A460B4907480CF009FE40F2A22184
:102C700038460CF08AFEE6E7074BE8E73416010019
:102C8000E41701008C0F0100007002400C180100D5
:102C9000FC030020281C01008C0400202DE9F041D9
:102CA000054650B13C4B1C78002C72D13B4B1D604B
:102CB000394B01221A70254621E0394C40F29163CC
:102CC0002246384938480CF0DAFD40F2916120463E
:102CD0000CF05BFEE6E740213846FFF77FFF07F088
:102CE0000F06082E15D817F0800F21D12F49360175
:102CF0008A19002393738B5193600135EDB2082D2F
:102D00002CD845F0800715F0080FE4D04FF400717F
:102D1000E2E7DFF88C8040F2A223424624492248B1
:102D20000CF0ADFD40F2A22140460CF02EFEDAE799
:102D30002049DCE740212046FFF750FF04F00F0553
:102D4000082D13D814F0800F1ED118492D014A19EF
:102D5000002393734B5193600134E4B2082C15D8CF
:102D600014F0080FE6D04FF40071E4E70C4E40F287
:102D7000A22332460E490C480CF081FD40F2A221FC
:102D800030460CF002FEDDE70A49DFE70A48BDE8FD
:102D9000F0810A48FBE700BFCA2700201C0500207D
:102DA00034160100981A01008C0F0100FC0300206A
:102DB000281C01008C0400200000AD0B0500AD0BA9
:102DC0002DE9F04705460E4600F00F03082B18D8F2
:102DD0006CB2002C23DB102304F00F041C4406B358
:102DE0004FF02003EFF3118883F31188BFF36F8F47
:102DF00015F00F0723D1554B1B78AB421FD0544819
:102E00002AE0544C40F2B5232246534953480CF073
:102E100036FD40F2B52120460CF0B7FDD8E700237F
:102E2000DAE74C4F40F61E033A464D494B480CF04A
:102E300026FD40F61E0138460CF0A7FDD0E7494BB1
:102E40001B68DB439BB2484A12681343012202FA13
:102E500004F4234206D0454888F31188BFF36F8FEE
:102E6000BDE8F08705F00F09B9F1080F2CD815F06F
:102E7000800F38D13E4B03EB091915F0800F34D188
:102E800007EB4707BB003B4D1D44336823B103F0FC
:102E90006043B3F1005F4BD1374BC9F8003096E87F
:102EA000070085E80700C9F804500023C9F8083076
:102EB00089F80E302C4A13681C4314602F4B802273
:102EC000C3F804212E48C7E7DFF888A040F2A22308
:102ED0005246214921480CF0D2FC40F2A221504632
:102EE0000CF053FDC3E7274BC5E707EB4707BB00D3
:102EF000254D1D44336803F06043B3F1005F07D0F4
:102F0000B36813F0010F0FD1204BC9F80030C6E7AA
:102F1000B36813F0010F03D11D4BC9F80030BEE7B1
:102F20001C4BC9F80030BAE71B4BC9F80030B6E7B4
:102F3000084F40F678033A46184908480CF09FFCC1
:102F400040F6780138460CF020FDA5E7CB2700209D
:102F50000A00AD0B34160100281C01008C0F010083
:102F600098190100F8030020880300200B00AD0B26
:102F7000FC0300201C0300200D1F000000E100E006
:102F80000000AD0B8C0400208C030020A92F000052
:102F9000AD1F00000D20000041300000B4190100F9
:102FA00000487047240500202DE9F04106460C46F4
:102FB00015460B6803F06043B3F1005F1BD0D4F8F3
:102FC0000480FFF7EDFF0746A84500D84546402D91
:102FD0001FD82A46216838460DF0AAFA3760756076
:102FE0006068401B606023681D442560003018BF86
:102FF0000120BDE8F0810E4F4FF40E733A460D49A3
:103000000D480CF03CFC4FF40E7138460CF0BDFC42
:10301000D5E7DFF81C8040F24223424607490648C4
:103020000CF02DFC40F2422140460CF0AEFCD0E703
:1030300034160100381A01008C0F0100601A0100DB
:103040002DE9F04106460D4614460B6803F0604337
:10305000B3F1005F17D06F68FFF7A2FF8046A74269
:1030600000D83C46402C1CD84CBB00233360746015
:103070006B681B1B6B602B6823442B60201C18BFE4
:103080000120BDE8F081124F40F25B233A4611491E
:1030900011480CF0F4FB40F25B2138460CF075FC53
:1030A000D9E70B4F40F265233A460C490A480CF029
:1030B000E6FB40F2652138460CF067FCD4E7224677
:1030C000296840460DF034FAC6F80080CFE700BF0B
:1030D00034160100381A01008C0F0100601A01003B
:1030E000F8B505460E4600F00F04082C17D815F069
:1030F000800F22D1134B24011A194FF02000EFF357
:10310000118180F31188BFF36F8F906830601B5975
:10311000ABB1042081F31188BFF36F8FF8BD0A4F64
:1031200040F2A2233A46094909480CF0A8FB40F2B4
:10313000A22138460CF029FCD9E7064BDBE7907B4F
:10314000E8E700BFFC03002034160100281C010042
:103150008C0F01008C04002070B5044600F00F03B2
:10316000082B0FD804F00F05082D19D814F0800F84
:1031700024D114F0080F2FD105F594751A4B53F88C
:10318000250070BD194D40F285232A46184919487B
:103190000CF075FB40F2852128460CF0F6FBE1E7C8
:1031A000154E40F256433246144912480CF067FB64
:1031B00040F2564130460CF0E8FBD7E70E4E40F2A5
:1031C000574332460E490B480CF059FB40F2574129
:1031D00030460CF0DAFBCCE7034BD3F8C00410F414
:1031E000803FCED00020CCE70070024034160100B2
:1031F000281C01008C0F0100F816010020170100A7
:10320000081A0100BD4B1B78002B40F0D0812DE93E
:10321000F04385B0BA4B1B68BA4A1068034000F00F
:103220005B8113F001206FD00CF0C0FB06460F2E1F
:103230006FD9A6F11005EDB205F00F04082C6CD87B
:1032400015F0800F77D1B04A2301D418D358002B42
:1032500073D04FFA85F9B9F1000F7CDB2846FFF7F0
:103260007BFF804627680346A289616802A8B847A9
:103270000746029B002B78D0039B4345C0F0878014
:10328000434540F0A1800FB9002323609F4B822269
:103290001A600123994A1370B3409A490A6822EAD6
:1032A00003030B60039AA3681344A360029BB9F164
:1032B000000FC0F2988015F0080F00F0A980944923
:1032C000C1F8A037C1F8A427924B1B68082B00F067
:1032D000AB800023002B00F0CF8005F00F04082CFA
:1032E00000F2348115F0800F40F03E81282303EB7B
:1032F000840303F1804303F51C3301221A60BFF3FA
:103300006F8FBFF34F8F49E118460CF04FFB064615
:103310008DE766F07F05EDB28EE77F4F40F2A22386
:103320003A467E497E480CF0AAFA40F2A22138467D
:103330000CF02BFB84E77B4A86E7774F4FF4AD63B5
:103340003A46794976480CF09AFA4FF4AD6138461E
:103350000CF01BFB7DE72368A289616802A89847EF
:10336000002893D10023236090E7039B002B8AD091
:10337000DFF8A48140F2845342466C4968480CF05F
:103380007EFA40F2845140460CF0FFFA7BE70222BD
:10339000A2730123B340DB435949BFF35B8F51E86C
:1033A000000F184041E80004002CF8D1BFF35B8FF8
:1033B00006238DF804308DF806508DF807205C4BFD
:1033C0001B6801A8984725E7DFF84C8140F293532A
:1033D0004246584952480CF052FA40F29351404646
:1033E0000CF0D3FA4FE715F0080F05D04849C1F8A3
:1033F000A036C1F8A42667E705F00F064448B100DF
:103400008F19BC000444C4F80036C4F804265BE7F6
:1034100005F00F063E48B1008F19BC000444C4F803
:103420000037C4F804274FE7434B1B68002B3FF4D9
:1034300051AF01234EE7384E40F2922332463749CE
:1034400037480CF01CFA40F2922130460CF09DFAFD
:103450001DE0042303EB840303F1804303F51C33D5
:1034600001221A60BFF36F8FBFF34F8F0220FEF768
:103470002FF9324B1B687BB9304B00221A60BFF327
:103480006F8FBFF34F8F05F00F04082CD3D815F0C2
:10349000800FDED12823DDE71E20FEF719F902E0B8
:1034A0000220FEF715F9264B1B6813F0200FF7D00A
:1034B0000120FEF70DF905F00F04082C0FD815F0C8
:1034C000800F41D11F4B33F8143003F1804303F5D3
:1034D0001C331B68002BCFD005B0BDE8F0830E4E27
:1034E0004FF4B97332460D490D480CF0C8F94FF44A
:1034F000B97130460CF049FAE1E700BFC927002056
:1035000088030020F8030020FC0300201C7C0240FC
:10351000007002403001001034160100281C010028
:103520008C0F01008C040020CC1B0100F81B010053
:103530001C0500200C1C0100340100100471024025
:1035400074740240A0150100194BBCE7194E40F2FB
:1035500092233246184919480CF091F940F2922111
:1035600030460CF012FABDE60423C0E6114E4FF4CB
:10357000B9733246104911480CF081F94FF4B97112
:1035800030460CF002FA0DE0094B33F8143003F129
:10359000804303F51C331B68002B9DD105F00F04FD
:1035A000082CE3D815F0800FEED1054BEDE77047FE
:1035B0008015010034160100281C01008C0F010049
:1035C000A015010010B51B4BD3F86C44C3F86C4434
:1035D000BFF36F8FBFF34F8F174B1B68082B0AD0B9
:1035E0000023C3B9154A136823F001110C4303F0FB
:1035F000011313600FE0124B1B68002BF1D0012365
:10360000EFE741F08000DBB2012202FA03F324EA83
:103610000304FEF7E1FF54B194FAA4F3B3FA83F381
:10362000D9B20F29EDD9A3F11000C0B2EBE7FFF733
:10363000E9FD10BD0070024030010010200500209F
:103640003401001000B583B000231C4A13601C4AEB
:1036500013701C4B9B7F032B07D01A4B1B6993B134
:10366000FFF7D0FD03B05DF804FB174BBFF35B8F92
:1036700053E8002F22F4003243E800210029F7D15B
:10368000BFF35B8FECE7104BBFF35B8F53E8002F6A
:1036900022F4003243E800210029F7D1BFF35B8F09
:1036A00006238DF8043001238DF8063000238DF8B1
:1036B0000730064B1B6801A89847D1E71C7C0240E5
:1036C000C9270020FC030020880300201C050020DF
:1036D00000B583B000231D4A13601D4A13701D4BB3
:1036E00093F87E30032B07D01A4B1B6F93B1FFF773
:1036F00089FD03B05DF804FB174BBFF35B8F53E804
:10370000002F22F4000243E800210029F7D1BFF383
:103710005B8FECE7104BBFF35B8F53E8002F22F475
:10372000000243E800210029F7D1BFF35B8F062395
:103730008DF8043007238DF8063000238DF807300C
:10374000064B1B6801A89847D1E700BF1C7C0240CC
:10375000C9270020FC030020880300201C0500204E
:1037600000B583B000231C4A13601C4A13701C4B25
:1037700093F86E30032B07D0194B1B6E93B1FFF7F4
:1037800041FD03B05DF804FB164BBFF35B8F53E8BC
:10379000002F22F4800243E800210029F7D1BFF373
:1037A0005B8FECE70F4BBFF35B8F53E8002F22F4E6
:1037B000800243E800210029F7D1BFF35B8F062385
:1037C0008DF804308DF8063000238DF80730064B55
:1037D0001B6801A89847D2E71C7C0240C92700203B
:1037E000FC030020880300201C05002000B583B0E6
:1037F00000231D4A13601D4A13701D4B93F85E3061
:10380000032B07D01A4B1B6D93B1FFF7FBFC03B0E2
:103810005DF804FB174BBFF35B8F53E8002F22F4D6
:10382000001243E800210029F7D1BFF35B8FECE7DA
:10383000104BBFF35B8F53E8002F22F4001243E8D4
:1038400000210029F7D1BFF35B8F06238DF80430E8
:1038500005238DF8063000238DF80730064B1B68D2
:1038600001A89847D1E700BF1C7C0240C92700206F
:10387000FC030020880300201C05002000B583B055
:1038800000231D4A13601D4A13701D4B93F84E30E0
:10389000032B07D01A4B1B6C93B1FFF7B3FC03B09B
:1038A0005DF804FB174BBFF35B8F53E8002F22F446
:1038B000801243E800210029F7D1BFF35B8FECE7CA
:1038C000104BBFF35B8F53E8002F22F4801243E8C4
:1038D00000210029F7D1BFF35B8F06238DF8043058
:1038E00004238DF8063000238DF80730064B1B6843
:1038F00001A89847D1E700BF1C7C0240C9270020DF
:10390000FC030020880300201C05002000B583B0C4
:1039100000231D4A13601D4A13701D4B93F83E305F
:10392000032B07D01A4B1B6B93B1FFF76BFC03B053
:103930005DF804FB174BBFF35B8F53E8002F22F4B5
:10394000002243E800210029F7D1BFF35B8FECE7A9
:10395000104BBFF35B8F53E8002F22F4002243E8A3
:1039600000210029F7D1BFF35B8F06238DF80430C7
:1039700003238DF8063000238DF80730064B1B68B3
:1039800001A89847D1E700BF1C7C0240C92700204E
:10399000FC030020880300201C05002000B583B034
:1039A00000231D4A13601D4A13701D4B93F82E30DF
:1039B000032B07D01A4B1B6A93B1FFF723FC03B00C
:1039C0005DF804FB174BBFF35B8F53E8002F22F425
:1039D000802243E800210029F7D1BFF35B8FECE799
:1039E000104BBFF35B8F53E8002F22F4802243E893
:1039F00000210029F7D1BFF35B8F06238DF8043037
:103A000002238DF8063000238DF80730064B1B6823
:103A100001A89847D1E700BF1C7C0240C9270020BD
:103A2000FC030020880300201C05002038B5044654
:103A300000F00F03082B0CD814F0080F17D144F432
:103A40008074124BC3F81845BFF36F8FBFF34F8FCD
:103A500038BD0F4D40F285232A460E490E480BF023
:103A60000EFF40F2852128460BF08FFFE4E70B4D57
:103A700040F2E7432A460A4907480BF000FF40F2AC
:103A8000E74128460BF081FFD9E700BF00700240F4
:103A900034160100281C01008C0F0100F8160100EB
:103AA0001C1D010038B5044600F00F03082B04D894
:103AB00014F0080F0FD0002038BD244D40F28523AC
:103AC0002A46234923480BF0DAFE40F28521284696
:103AD0000BF05BFFECE704F00F0514F0800F0FD143
:103AE00014F0080F23D105F588739B0003F1804380
:103AF00003F51C335868012814BF00200120DBE7C0
:103B000014F0080F05D105F58475134B53F8250003
:103B1000F1E7124C40F2FF33224611490D480BF0F9
:103B2000AEFE40F2FF3120460BF02FFFEBE70B4CCF
:103B300040F2044322460B4906480BF0A0FE40F237
:103B4000044120460BF021FFCDE700BF34160100F1
:103B5000281C01008C0F010000700240F8160100C3
:103B6000A01801001C19010010B50446082200210C
:103B70000CF001FD114BD3F880242270D3F884247B
:103B80006270D3F8882492B2D3F88C14090289B2F7
:103B90000A436280D3F8902492B2D3F894140902B5
:103BA00089B20A43A280D3F8982492B2D3F89C3405
:103BB0001B029BB21343E38010BD00BF00700240A4
:103BC000124B1B68082B13D00023BBB9EFF31081F5
:103BD00072B60F4B01221A60BFF36F8FBFF34F8F86
:103BE0001A60BFF36F8FBFF34F8F81F31088704758
:103BF000084B1B68002BE8D00123E6E7044B0122A9
:103C00001A60BFF36F8FBFF34F8F70473001001002
:103C10004C7002403401001000231D4A13601D4AFD
:103C200013701D4B9B7B032B07D000B583B01A4B41
:103C30001B6883B1FFF7C4FF26E0184BBFF35B8F0F
:103C400053E8002F22F4803243E800210029F7D105
:103C5000BFF35B8F7047114BBFF35B8F53E8002FAF
:103C600022F4803243E800210029F7D1BFF35B8FB3
:103C700006238DF8043000238DF806308DF80730C8
:103C8000074B1B6801A8984703B05DF804FB00BF11
:103C90001C7C0240C9270020FC0300208803002070
:103CA0001C050020034B01221A60BFF36F8FBFF386
:103CB0004F8F704750700240034B01221A60BFF3D0
:103CC0006F8FBFF34F8F704754700240014B1878CD
:103CD000704700BFCB27002070B5044610F0800F5E
:103CE00031D1544B1B68082B3BD00023002B4ED105
:103CF0004FF02003EFF3118583F31188BFF36F8F2B
:103D000004F00F03082B32D863B2002B3DDB1022E6
:103D100003F00F031344012202FA03F346490A6831
:103D200022EA03020A6004F00F04640004F2C5747E
:103D3000424B1C60043300221A601B6885F3118813
:103D4000BFF36F8F70BD3E4D40F61D132A463D49AF
:103D50003D480BF094FD40F61D1128460BF015FE72
:103D6000BFE73A4B1B68002BC0D00123BEE7344E9F
:103D700040F2B5233246364933480BF080FD40F21D
:103D8000B52130460BF001FEBEE70022C0E74FF040
:103D90002003EFF3118583F31188BFF36F8F04F0D5
:103DA0000F03082B16D863B2002B21DB102203F07F
:103DB0000F031344012202FA03F31F490A6822EA9F
:103DC00003020A6014F0080F14D085F31188BFF3C2
:103DD0006F8FB7E71A4E40F2B52332461C491A4896
:103DE0000BF04DFD40F2B52130460BF0CEFDDAE789
:103DF0000022DCE714F0800F02D114F0080F0CD081
:103E0000144E40F27A43324613490F480BF037FD07
:103E100040F27A4130460BF0B8FD04F00F0404F58F
:103E200094740E4B002243F82420BFF36F8FBFF32E
:103E30004F8FCAE730010010F803002000780240DD
:103E400034160100081A01008C0F01003401001023
:103E5000281C0100F8160100D41A0100007002406D
:103E60002DE9F04383B0BE4BD3F88064BD4B1D6891
:103E7000ED43ADB2BC4B1B681D43BC4B1C7804F03A
:103E80000F03082B30D864B2002C3BDB102304F066
:103E90000F041C44012303FA04F4254234D116F024
:103EA000800F40F097810022B04B1A70AE4BBFF3E9
:103EB0005B8F53E8002F22F0011243E80021002914
:103EC000F7D1BFF35B8FA74A136843F00103136078
:103ED0000023019305238DF80430A54B1B6801A82E
:103EE000984703B0BDE8F083A24F40F2B5233A46AD
:103EF000A149A2480BF0C3FC40F2B52138460BF0B3
:103F000044FDC0E70023C2E7984B1C784FF0200324
:103F1000EFF3118783F31188BFF36F8F04F00F0560
:103F2000082D71D814F0800F7DD1954B03EB05154A
:103F300014F0800F79D014F0080F13D1802C00F00A
:103F4000EF8004F00F03013B5B0003F2B6738D4A70
:103F5000136004321368DBB243F0020311680B43B1
:103F6000136013687F4B1A687F4B1B6863EA020873
:103F700004F00F03082B00F2E18063B2002BC0F2C3
:103F8000EC80102203F00F031344012202FA03F322
:103F900018EA030F63D004F00F03082B00F2F88037
:103FA00063B2002BC0F20381102203F00F0313440D
:103FB000012202FA03F36C490A6822EA03020A604A
:103FC00004F00F03082B00F2F48063B2002BC0F260
:103FD000FF80102203F00F031344012202FA03F3BF
:103FE00060490A681A430A6000232B600323AB73FD
:103FF00006228DF800208DF802408DF803305C4BCE
:104000001B68684698472AE0DFF8688140F2A223DF
:104010004246594959480BF032FC40F2A221404631
:104020000BF0B3FC7EE7584B80E74F4B1B686FEA01
:10403000030804F00F03082B16D863B2002B22DB11
:10404000102203F00F031344012202FA03F318EACB
:10405000030F1AD02046FFF73FFE0323AB7387F30D
:104060001188BFF36F8F1AE7DFF8089140F2B5238C
:104070004A46414941480BF002FC40F2B52148460E
:104080000BF083FCD9E70022DBE700232B6004F070
:104090000F03082B22D863B2002B2EDB102203F073
:1040A0000F031344012202FA03F32F490A6822EA9C
:1040B00003020A6004F00F03082B20D864B2002C1E
:1040C0002CDB102304F00F041C44012303FA04F436
:1040D000244A136823EA04031360BEE7DFF89480E0
:1040E00040F2B5234246244924480BF0C8FB40F275
:1040F000B52140460BF049FCCDE70022CFE7DFF8C1
:10410000748040F2B52342461B491C480BF0B7FBB4
:1041100040F2B52140460BF038FCCFE70023D1E751
:10412000184B40F2B4721A60184A1368DBB243F0BD
:10413000040311680B431360136813E7DFF834902E
:1041400040F2B5234A460C490C480BF098FB40F26C
:10415000B52148460BF019FC0FE7002212E700BF1B
:1041600000700240F803002088030020CB270020C5
:104170001C05002034160100281C01008C0F0100D2
:10418000FC030020007802408C04002004780240E8
:10419000DFF84C8040F2B52342460F490F480BF040
:1041A0006EFB40F2B52140460BF0EFFBF8E6002233
:1041B000FBE6DFF82C8040F2B5234246064907486B
:1041C0000BF05DFB40F2B52140460BF0DEFBFCE658
:1041D0000022FFE6802267E6281C01008C0F010008
:1041E0003416010070B5654BD3F8046331460024E2
:1041F00004E0012303FA02F221EA0201C1B191FABB
:10420000A1F2B2FA82F202F140039B0003F1804373
:1042100003F51C33186828B100251D60BFF36F8FAC
:10422000BFF34F8F0028E4D0012393401C43E0E705
:10423000534B1B68082B00F083800023002B7AD19E
:10424000504B1B78002B76D114F4001F73D04E4BCB
:1042500040F2A9721A600433196811F0FF0101D00D
:104260001B681940484B40F2AA721A6004331A685E
:1042700012F0FF0201D01B681A40434B40F2AB70B2
:10428000186004331B6813F0FF0302D03F48006836
:1042900003403D4840F2AC750560043000680140C1
:1042A0000AD03B4D286808432860374840F2A9757A
:1042B0000560043001600168334940F2AD70086068
:1042C000043109680A400BD03148016841EA0241D3
:1042D00001602D4940F2AA70086004310A600A6842
:1042E000294A40F2AE71116004321268134010D0B6
:1042F00013F0010F01D044F4000413F0100F01D0AB
:1043000044F00104204A40F2AB71116004321360A2
:1043100013681F4B1B6833F0011202D006F0807146
:104320000C4313F0011F06D016F4806F03D0184B16
:104330001A6044F4806404F4000624F4000413E0DA
:10434000144B1B68002B3FF479AF012376E794FAF6
:10435000A4F5B5FA85F5104B53F82530984701239D
:1043600003FA05F524EA0504002CF0D1FEF74AFF14
:1043700006B970BDFFF774FDFBE700BF0070024097
:1043800030010010C9270020007802400478024064
:104390002005002034010010D015010070B504463E
:1043A00000F00F05082D18D814F0800F23D15A4BB8
:1043B0005A5D01239340594AC2F8043304F00F05B3
:1043C000082D1AD814F0800F25D1544BD3F814358A
:1043D000EB4003F001032BB370BD514E40F29B1331
:1043E0003246504950480BF04AFA40F29B11304691
:1043F0000BF0CBFAD8E74D4BDAE74D4E40F2AE4327
:1044000032464C4948480BF03AFA40F2AE41304649
:104410000BF0BBFAD6E7414BD3F81035EB4003F075
:104420000103D8E704F00F03082B3FD804F00F0571
:10443000082D49D814F0800F54D13849D1F81435DB
:10444000012202FA05F51D43C1F81455BFF36F8F21
:10445000BFF34F8F14F00F0FBED014F0800FBBD1FD
:1044600014F0080FB8D14FF02003EFF3118583F358
:104470001188BFF36F8F2046FFF72EFC04F00F0367
:10448000082B39D864B2002C44DB102304F00F044D
:104490001C44012303FA04F4274A136823EA0403A3
:1044A000136085F31188BFF36F8F95E71C4D40F2C1
:1044B00085232A461B491C480BF0E1F940F285216F
:1044C00028460BF062FAB1E7194E40F2BD4332467E
:1044D000184915480BF0D3F940F2BD4130460BF0B6
:1044E00054FAA7E70D49D1F81035012202FA05F573
:1044F0001D43C1F81055A9E7094E40F2B5233246D5
:10450000084909480BF0BBF940F2B52130460BF0E1
:104510003CFAB7E70023B9E79415010000700240A8
:1045200034160100281C01008C0F010074150100D5
:10453000F8160100201701008803002038B5044652
:1045400010F0800F0ED004F00F03082B12D814F0D7
:10455000080F1DD1154BC3F81845BFF36F8FBFF37C
:104560004F8F38BDFFF79EFA0028ECD02046FFF7AA
:10457000B3FBE8E70E4D40F285232A460D490E486D
:104580000BF07DF940F2852128460BF0FEF9DEE7BD
:104590000A4D40F2EF432A46094907480BF06FF9EC
:1045A00040F2EF4128460BF0F0F9D3E700700240EB
:1045B00034160100281C01008C0F0100F8160100C0
:1045C0001C1D01002DE9F04782B0B94B5B88B94A48
:1045D000166846EA03460AE044F0800414F0080F27
:1045E00013D0EBB2012202FA03F326EA0306002EEF
:1045F00000F0568196FAA6F3B3FA83F5ECB20F2CCD
:10460000EAD9A5F11004E4B2E8E74FF02003EFF394
:10461000118983F31188BFF36F8F04F00F07082F00
:1046200071D814F0800F7DD1A34B03EB071714F062
:10463000800F79D014F0080F13D1802C00F0EF8098
:1046400004F00F03013B5B0003F2B6739B4A136057
:1046500004321368DBB243F0020311680B431360AA
:104660001368934B1A68934B1B6863EA020804F0C3
:104670000F03082B00F2E18063B2002BC0F2EC8044
:10468000102203F00F031344012202FA03F318EA85
:10469000030F63D004F00F03082B00F2DF8063B236
:1046A000002BC0F2EA80102203F00F031344012212
:1046B00002FA03F37F490A6822EA03020A6004F05F
:1046C0000F03082B00F2DB8063B2002BC0F2E68000
:1046D000102203F00F031344012202FA03F374497A
:1046E0000A681A430A6000233B600323BB73062257
:1046F0008DF804208DF806408DF80730704B1B684C
:1047000001A898472AE0DFF8CC8140F2A223424674
:104710006C496D480BF0B3F840F2A22140460BF013
:1047200034F97EE7694B80E7624B1B686FEA030848
:1047300004F00F03082B16D863B2002B22DB1022E3
:1047400003F00F031344012202FA03F318EA030FE4
:104750001AD02046FFF7C0FA0323BB7389F31188F0
:10476000BFF36F8F3DE7DFF86CA140F2B5235246EF
:10477000544955480BF083F840F2B52150460BF0F0
:1047800004F9D9E70022DBE700233B6004F00F03C4
:10479000082B22D863B2002B2EDB102203F00F036C
:1047A0001344012202FA03F342490A6822EA03028F
:1047B0000A6004F00F03082B20D864B2002C2CDB15
:1047C000102304F00F041C44012303FA04F4384AB4
:1047D000136823EA04031360BEE7DFF8F88040F2B1
:1047E000B5234246374938480BF049F840F2B52125
:1047F00040460BF0CAF8CDE70022CFE7DFF8D480BF
:1048000040F2B52342462F492F480BF038F840F2CA
:10481000B52140460BF0B9F8CFE70023D1E7274B8D
:1048200040F2B4721A602A4A1368DBB243F0040300
:1048300011680B431360136813E7DFF898A040F288
:10484000B52352461F4920480BF019F840F2B52114
:1048500050460BF09AF80FE7002212E7DFF8748059
:1048600040F2B5234246174917480BF008F840F2CA
:10487000B52140460BF089F811E7002214E7DFF874
:10488000548040F2B52342460E490F480AF0F7FF24
:1048900040F2B52140460BF078F815E7002218E702
:1048A000034B40F2FF121A6002B0BDE8F08700BF70
:1048B000F803002088030020FC0300200078024059
:1048C0001C050020281C01008C0F01008C04002016
:1048D000047802403416010010B5164B1B78022BE9
:1048E00008D1154B8022C3F88421272004F000FE54
:1048F00070B910BD114C4FF4EB63224610491148BA
:104900000AF0BDFF4FF4EB6120460BF03EF8E8E7FC
:10491000FFF758FE0C4C0023C4F80435BFF36F8F2B
:10492000BFF34F8F272004F0CFFD4FF0FF33C4F8C3
:104930000833DEE7CA27002000E100E0341601005A
:10494000A81A01008C0F01000070024010B5144B32
:104950001B78B3B1FFF7C0FF124AD2F80433C2F894
:1049600008330023C2F80035BFF36F8FBFF34F8FBA
:1049700002F61C4213600C4A1370094B01221A7094
:1049800010BD0A4C40F22B732246094909480AF02F
:1049900076FF40F22B7120460AF0F7FFDAE700BFFE
:1049A000CA27002000700240C927002034160100E9
:1049B000CC1601008C0F010038B54FF02003EFF347
:1049C000118583F31188BFF36F8F114B1B7803F0B0
:1049D000FF042BB985F31188BFF36F8F204638BDD4
:1049E000FFF7F0FD0B4BD3F8003413F4007F0DD12B
:1049F000084B0122C3F82C25D3F8003413F4007FB0
:104A0000E8D00024034BC3F82C45E3E70024E1E79A
:104A1000C82700200070024010B5114C0323236109
:104A20006361104AA261104BE3614FF4806323621B
:104A30000023A3626362E36222660C4A626610226C
:104A4000A2662367E36663670949E01D0BF033FD47
:104A5000084920460BF02FFD2023A37110BD00BF95
:104A600064050020701D01001C0600200C060020BB
:104A70007C1D0100801D01002DE9F04F83B004462C
:104A80000191164643000344D900424A0A44936AFE
:104A9000556AAB4260D83F4A0A44D2F82080A8EB5E
:104AA000050909F1FF32B24204D213449E4217D9DC
:104AB000002056E0374F431C03EB4303DA003A442F
:104AC00050683246019928440BF032FD354404EB1E
:104AD0004404E30007EB0308C8F82450012040E039
:104AE000B14515D92B4F431C03EB4303DA003A447D
:104AF00050683246019928440BF01AFD354404EB06
:104B00004404E30007EB0308C8F82450012028E020
:104B1000DFF880A000F1010B4FEA4B0707EB0B0217
:104B2000D300534458684A46019928440BF000FDCD
:104B3000BB444FEACB035344A5EB080535442A4652
:104B40000199494458680BF0F3FC04EB4404E3007A
:104B50009A44CAF82450D9E75B1B013B9E4203D913
:104B6000002003B0BDE8F08FDFF82880431C03EB82
:104B70004303DA00424450683246019928440BF05E
:104B8000D7FC354404EB4404E3009844C8F82450AF
:104B90000120E6E764050020F8B50F461646194ADD
:104BA000431C03EB4303DD00154400EB4000C3004E
:104BB0001A44D46A012C11D024B1022C1BD0002439
:104BC0002046F8BD28460AF0F6FEB042F8D3324639
:104BD000394628460AF0FBFE3446F1E728460AF03B
:104BE000EAFE3446864228BF044622463946284615
:104BF0000AF0EDFEE4E7324628460AF00CFF0446D0
:104C0000DEE700BF6405002010B4064A43001C180C
:104C1000E10011448C6A0344D9000A44506A001B25
:104C200010BC70476405002008B5054B186018B12A
:104C3000044B1B68092B00DC08BD09F053FCFBE7A3
:104C4000B80A00201C0A00202DE9F84380460029FC
:104C500049D1002421E0DFF8AC904FF485734A4637
:104C6000234924480AF00BFE4FF4857148460AF0A8
:104C70008CFE1CE0DFF88C9062234A461C491D48DC
:104C80000AF0FDFD622148460AF07FFE1BE07359E1
:104C90001B684146384698470134174B174A9B1A00
:104CA000B4EB231F1FDA2601144D7719D3D07B688C
:104CB0005B79002BF0D0414638460AF0FCFE002814
:104CC000EAD0002FD6D0B8F1000FE0D1DFF8349051
:104CD00063234A460A4907480AF0D1FD6321484642
:104CE0000AF053FED3E740460AF07AFFBDE8F883A6
:104CF0000C1E01008C0F0100340E0100240E010077
:104D0000241E0100EC1D010030B587B00B4D0024BE
:104D1000059404940E230393029401940094084B89
:104D20004FF440720749284609F034FE06492846E8
:104D30000BF0DDFE204607B030BD00BF4C0A00205E
:104D400091530000E0470020881D010008B500F0E5
:104D500089FB08480AF097FE0423282206490748E1
:104D600007F07EFC064B074A1A604FF4004000F043
:104D700003FE08BD280A0020C06B0020300A002076
:104D800090700020BBFA00002DE9F843214B00246D
:104D9000BFF35B8F53E8008F43E80042002AF9D14C
:104DA000BFF35B8F1CE0DFF880904FF485734A46B9
:104DB00019491A480AF063FD4FF4857148460AF014
:104DC000E4FD17E0DFF86090A1234A46124913483A
:104DD0000AF055FDA12148460AF0D7FD10E0013444
:104DE0000F4B104A9B1AB4EB231F11DA26010D4D0D
:104DF0007719D8D07B685B79002BF0D0002FE1D0F9
:104E00007359DB68002BEAD0414638469847E6E7FD
:104E1000BDE8F883200A00200C1E01008C0F010061
:104E2000340E0100240E0100EC1D010038B5194BB1
:104E30001B7803B948B304464FF02003EFF3118504
:104E400083F31188BFF36F8F13480AF02CFE85F3AC
:104E50001188BFF36F8F70B1104BBFF35B8F53E8B6
:104E6000002F013A43E800210029F8D1BFF35B8FFE
:104E70002146FFF7E9FE14B9094B1B6833B9064810
:104E80000AF00FFE003018BF012038BDFFF77CFF8D
:104E9000F5E700BFCC270020280A00201C0A0020CC
:104EA000200A002070B5A0B000250B4602468021E4
:104EB0006846FCF719FA0246802828BF8022164669
:104EC0006946284600F020FB70B3044645811A4B22
:104ED0001B689847E060194BBFF35B8F53E8002FC6
:104EE000013243E800210029F8D1BFF35B8F4FF076
:104EF0002003EFF3118583F31188BFF36F8F2146F1
:104F00000F480AF0C4FD85F31188BFF36F8F0D4B76
:104F10001B786BB9094B1B680A2B06D10A4B186822
:104F200018B109F0DFFA00E02E46304620B070BD1F
:104F30000020FFF77BFFF8E7907000201C0A00209C
:104F4000280A0020CD270020B80A0020F0B583B041
:104F500006460D4617460022019201A9284807F08F
:104F6000ADFB00283DD1019C44B1012363600022C8
:104F700022814FF0000362F30003237234B12661F3
:104F8000637A012262F30713637265613CB3678140
:104F90001C4B1B689847E0601B4BBFF35B8F53E8CB
:104FA000002F013243E800210029F8D1BFF35B8FC5
:104FB0004FF02003EFF3118583F31188BFF36F8F58
:104FC000214612480AF063FD85F31188BFF36F8F05
:104FD0000F4B1B784BB90C4B1B680A2B09D003B045
:104FE000F0BD00F04BFA0190BDE70020FFF71EFF77
:104FF000F5E7084B18680028F1D009F073FAEEE7DE
:10500000BC0A0020907000201C0A0020280A002002
:10501000CD270020B80A00202DE9F04182B080465B
:105020000E4615461F460022019201A92A4807F0A4
:1050300045FB002840D1019C44B10123636000225C
:1050400022814FF0000362F30003237244B1C4F8DD
:105050001080637A022262F3071363726661A561AE
:105060003CB367811D4B1B689847E0601C4BBFF346
:105070005B8F53E8002F013243E800210029F8D16B
:10508000BFF35B8F4FF02003EFF3118583F311889B
:10509000BFF36F8F214613480AF0F9FC85F311889E
:1050A000BFF36F8F104B1B7853B90D4B1B680A2B46
:1050B0000AD002B0BDE8F08100F0E0F90190BAE753
:1050C0000020FFF7B3FEF4E7084B18680028F0D083
:1050D00009F008FAEDE700BFBC0A0020907000203C
:1050E0001C0A0020280A0020CD270020B80A002032
:1050F00070B582B005460E460022019201A92648ED
:1051000007F0DCFA002837D1019C44B10123636029
:10511000002222814FF0000362F30003237204B1E6
:1051200025613CB366811D4B1B689847E0601C4BB2
:10513000BFF35B8F53E8002F013243E800210029C1
:10514000F8D1BFF35B8F4FF02003EFF3118583F3AA
:105150001188BFF36F8F214612480AF098FC85F33F
:105160001188BFF36F8F104B1B784BB90C4B1B682A
:105170000A2B09D002B070BD00F080F90190C3E79E
:105180000020FFF753FEF5E7084B18680028F1D020
:1051900009F0A8F9EEE700BFBC0A002090700020DB
:1051A0001C0A0020280A0020CD270020B80A002071
:1051B000064BBFF35B8F53E8002F013243E8002119
:1051C0000029F8D1BFF35B8F704700BF200A002091
:1051D000054B064A9B1AB1EBD30F02D252F83100AD
:1051E00070470020704700BF240E0100D40D01005D
:1051F000F8B505460E46144C041B24110134E4B2E4
:1052000050B16B681C719DB16B681E606A680123A8
:1052100053710E4A1370F8BD0D4FBE233A460D4927
:105220000D480AF02CFBBE2138460AF0AEFBE8E739
:10523000074CEF232246074907480AF020FBEF21DD
:1052400020460AF0A2FBDFE7240E0100CC27002055
:10525000EC1D01000C1E01008C0F010070B51D4BF0
:105260001D4A9B1A1E11902B0EDC1C4BBFF35B8F4B
:1052700053E8002F511C43E800100028F8D1BFF379
:105280005B8F2ABB002413E0154C40F24D132246DD
:10529000144915480AF0F3FA40F24D1120460AF07D
:1052A00074FBE2E7042200212846FFF7A1FF013446
:1052B000B4420DDA084D05EB04152B7B002BF6D01C
:1052C0002301054AD3585B69002BEBD09847E9E7E7
:1052D00070BD00BF340E0100240E0100240A00201E
:1052E000D01D0100901D01008C0F0100224B1B7886
:1052F00003B170472DE9F041FFF7B0FF002413E040
:10530000DFF888804FF4857342461C491C480AF038
:10531000B6FA4FF4857140460AF037FB0EE0735938
:105320001B69384698470134164B174A9B1AB4EB51
:10533000231F16DA2601144D7719E1D07B685B79BB
:10534000002BF0D0002FEAD1DFF84080AF23424697
:105350000A490B480AF093FAAF2140460AF015FBC0
:10536000DDE70020FFF762FD0028FAD1024B0122A1
:105370001A70BDE8F08100BFCD2700200C1E01008F
:105380008C0F0100340E0100240E0100EC1D010001
:1053900008B5124B124A9B1A002B06DDFFF75EFF81
:1053A00009F0E0F8FFF740FC11E00E4C40F2A923B1
:1053B00022460D490D480AF062FA40F2A921204622
:1053C0000AF0E3FAEAE74FF47A7008F091FF002060
:1053D000FFF72CFD0028FAD1F5E700BF340E0100DD
:1053E000240E0100D01D0100B41D01008C0F01002E
:1053F000054B984204D37833984203D90020704774
:105400000020704701207047C46B002000B583B0B6
:1054100004380190BFF35B8F50E8003F5A1E40E80C
:1054200000210029F8D1BFF35B8F012B02D003B01C
:105430005DF804FB01A9024807F0C8F9F7E700BFCF
:10544000300A002010B582B00190019B33B11C6876
:1054500001A9034807F0BAF90194F6E702B010BDBC
:10546000BC0A002008B520231A460249024807F06A
:10547000F7F808BD606C0020BC0A002010B582B0AF
:10548000002301930120FFF7D1FC0446FFF790FEB3
:10549000002201A9044807F011F908B1002CF1D14C
:1054A000019802B010BD00BFBC0A002070B582B0E8
:1054B0000190457A037A13F0010F01D12D09D5B976
:1054C000019B1A7A12F0020F17D101A90D4807F0BB
:1054D0007DF902B070BD3046FFF798FF0134AC4251
:1054E000EED2214601980AF06AFB0646FFF780FFDC
:1054F0000028F3D0EFE70024F1E75869FFF7A2FF97
:10550000E3E700BFBC0A00202DE9F04383B0064664
:105510000F46144643F6FF75954228BF15460022F4
:10552000019201A9344807F0C9F858BBDDF804908E
:10553000B9F1000F5BD00123C9F8043099F80830A5
:1055400043F0010389F80830B9F8083065F38F0398
:10555000A9F80830C9F810600C2C17D90822394670
:1055600009F118000AF0E4FF0023C9F8143099F893
:10557000083043F0020389F808300837083D09F184
:10558000140826E0FFF77AFF0190CFE72A46394654
:1055900009F114000AF0CCFF99F808306FF34103C9
:1055A00089F808300025EAE7FFF768FF0190019CC1
:1055B000CCB1C8F8004000232360A0462E461C2D25
:1055C00028BF1C2632463946201D0AF0B1FF374459
:1055D000AD1B65B10022019201A9074807F06EF8E2
:1055E0000028E4D0E0E74846FFF760FFA1464846C0
:1055F00003B0BDE8F08300BFBC0A00200EB400B5C4
:1056000082B003AB53F8042B019301460448FBF727
:10561000ABFC002002B05DF804EB03B0704700BFA4
:1056200045580000F0B585B011F0440F05D01A4B75
:10563000196831B9002005B0F0BD1849FFF7DEFF49
:10564000F9E7174B1D68B2FBF5F5B5FBF1F4154A08
:10565000A2FB0432D20A4FF4616606FB1246124BDB
:10566000A3FB06735B0901FB14544FF47A7505FB29
:1056700004F4B4FBF1F707FB114405FB04F4B4FB9D
:10568000F1F102910197C3EB0314A100711A00918B
:105690000649FFF7B3FFCEE7D80A0020441F0100F8
:1056A000DC0A0020C5B3A29189888888501F0100B8
:1056B00061B108B52AB1064A52F8232012B9054A49
:1056C00000E0044A0449FFF799FF08BD704700BF96
:1056D000401E0100381E01004411010011F0100F9E
:1056E0000BD108B511F0200F03D00449FFF786FF56
:1056F00008BD0349FFF782FFFAE770470036010053
:105700007C1E01002DE9F04105460F4616469846DD
:105710000699FFF7E3FF0024444505DA19492846B6
:10572000FFF76CFF0134F7E7002404E01649284630
:10573000FFF764FF0134072C07DCB442F6D23A5D70
:1057400012492846FFF75AFFF4E711492846FFF7A8
:1057500055FF002404E00F492846FFF74FFF0134AE
:10576000072C0DDCB44206D23A5DA2F120035E2B79
:10577000F1D92E22EFE703492846FFF73FFFEEE776
:10578000BDE8F081781E01005C1E0100541E01007E
:10579000601E0100641E0100F8B5044616461F464F
:1057A00049B9002586B10123079A934013F0100FE1
:1057B00016D10C4E09E00C4B079A53F822200B49E6
:1057C000FFF71CFF0546EDE7064E06993846FFF742
:1057D000FFFC024631462046FFF710FF2844F8BD83
:1057E000034EF2E7681E0100101F0100741E010045
:1057F000701E01002DE9F04186B006460D46904628
:105800001F460AF000FA02460D492846FFF7F6FE49
:10581000002408230393234603AA04A930460AF070
:10582000F4F9039A42B10097434604A92846FFF7CA
:1058300069FF039B1C44ECE706B0BDE8F08100BFA4
:105840004411010038B50C468A684B681B68D05477
:105850004A681368013313604B681A68CB689A4230
:1058600006D863681A68E3689A420DD0002038BDF4
:10587000074D65232A46074907480AF000F86521C5
:1058800028460AF082F8ECE720460AF06DFBEDE7C7
:10589000801E0100A01E01008C0F0100F0B583B036
:1058A00006460C46CB6813B100273D4613E0194D60
:1058B00040F2A1132A461849184809F0E0FF40F2C7
:1058C000A11128460AF061F8EEE720460AF04CFBE9
:1058D000019B1D44ABB1E36801932B4601AAA1686B
:1058E00030460AF092F96268019B1360002BECD0FD
:1058F000A268134413F8013C0A2B14BF00270127A8
:10590000E3E70FB903B0F0BD05492046FFF776FE87
:10591000F8E700BF801E0100F81E01008C0F010097
:105920000C1F010070B582B0046843685D6842F2E4
:105930000F738B4228BF0B460C4A0521684604F0C2
:10594000FDFD06462B460B22094920460AF065F963
:105950002B463246694620460AF05FF92B461B2249
:10596000044920460AF059F902B070BD7C260100B6
:10597000EC1E0100D01E0100074B01221A60074BEC
:10598000984205D94008044A13685B001360F6E7A3
:10599000034B1860704700BFDC0A002040420F0034
:1059A000D80A0020034B01221A70034B00221A7000
:1059B000704700BFCE270020CF27002008B503483E
:1059C0000AF0D2FA024B01221A7008BD841F0100AE
:1059D000CF27002008B518B9074B00221A7008BD60
:1059E000064B1B7823B141F2883008F0F9FEF6E748
:1059F000052008F07DFCF2E7CE270020CF2700200D
:105A000038B504460A4B01221A700A4B1B7803B9B9
:105A100038BD0020FFF7F8F80028F9D0044B1B78B8
:105A2000002BF5D0651E2046FFF7D4FF2C46F0E78B
:105A3000CE270020CF270020F8B506460D460427C4
:105A400010E04FF0FF31154807F056F80EE013480C
:105A500007F058F914E03846FFF7D2FFDCB9104BD5
:105A60001B78C3B10F4B1B78002BEAD02A46314676
:105A70000020FFF701F804460A4B1B78002BE6D004
:105A8000002CE8D1064B1B78002BE7D0013F3846AD
:105A9000FFF7A0FFE2E72846F8BD00BF90740020A2
:105AA000CE270020CF27002008B50248FFF73AFF95
:105AB00008BD00BF841F010010B50C4608460AF05F
:105AC0006EF80F22214603480AF05BFA20460AF0DE
:105AD00087F810BD841F010010B50378C3F341138C
